{
  "contractName": "SwayBotFree",
  "abi": [
    {
      "inputs": [],
      "stateMutability": "nonpayable",
      "type": "constructor"
    },
    {
      "inputs": [],
      "name": "ApprovalCallerNotOwnerNorApproved",
      "type": "error"
    },
    {
      "inputs": [],
      "name": "ApprovalQueryForNonexistentToken",
      "type": "error"
    },
    {
      "inputs": [],
      "name": "ApprovalToCurrentOwner",
      "type": "error"
    },
    {
      "inputs": [],
      "name": "ApproveToCaller",
      "type": "error"
    },
    {
      "inputs": [],
      "name": "BalanceQueryForZeroAddress",
      "type": "error"
    },
    {
      "inputs": [],
      "name": "MintToZeroAddress",
      "type": "error"
    },
    {
      "inputs": [],
      "name": "MintZeroQuantity",
      "type": "error"
    },
    {
      "inputs": [],
      "name": "OwnerQueryForNonexistentToken",
      "type": "error"
    },
    {
      "inputs": [],
      "name": "TransferCallerNotOwnerNorApproved",
      "type": "error"
    },
    {
      "inputs": [],
      "name": "TransferFromIncorrectOwner",
      "type": "error"
    },
    {
      "inputs": [],
      "name": "TransferToNonERC721ReceiverImplementer",
      "type": "error"
    },
    {
      "inputs": [],
      "name": "TransferToZeroAddress",
      "type": "error"
    },
    {
      "inputs": [],
      "name": "URIQueryForNonexistentToken",
      "type": "error"
    },
    {
      "anonymous": false,
      "inputs": [
        {
          "indexed": true,
          "internalType": "address",
          "name": "owner",
          "type": "address"
        },
        {
          "indexed": true,
          "internalType": "address",
          "name": "approved",
          "type": "address"
        },
        {
          "indexed": true,
          "internalType": "uint256",
          "name": "tokenId",
          "type": "uint256"
        }
      ],
      "name": "Approval",
      "type": "event"
    },
    {
      "anonymous": false,
      "inputs": [
        {
          "indexed": true,
          "internalType": "address",
          "name": "owner",
          "type": "address"
        },
        {
          "indexed": true,
          "internalType": "address",
          "name": "operator",
          "type": "address"
        },
        {
          "indexed": false,
          "internalType": "bool",
          "name": "approved",
          "type": "bool"
        }
      ],
      "name": "ApprovalForAll",
      "type": "event"
    },
    {
      "anonymous": false,
      "inputs": [
        {
          "indexed": true,
          "internalType": "address",
          "name": "previousOwner",
          "type": "address"
        },
        {
          "indexed": true,
          "internalType": "address",
          "name": "newOwner",
          "type": "address"
        }
      ],
      "name": "OwnershipTransferred",
      "type": "event"
    },
    {
      "anonymous": false,
      "inputs": [
        {
          "indexed": true,
          "internalType": "address",
          "name": "from",
          "type": "address"
        },
        {
          "indexed": true,
          "internalType": "address",
          "name": "to",
          "type": "address"
        },
        {
          "indexed": true,
          "internalType": "uint256",
          "name": "tokenId",
          "type": "uint256"
        }
      ],
      "name": "Transfer",
      "type": "event"
    },
    {
      "inputs": [
        {
          "internalType": "address",
          "name": "to",
          "type": "address"
        },
        {
          "internalType": "uint256",
          "name": "tokenId",
          "type": "uint256"
        }
      ],
      "name": "approve",
      "outputs": [],
      "stateMutability": "nonpayable",
      "type": "function"
    },
    {
      "inputs": [
        {
          "internalType": "address",
          "name": "owner",
          "type": "address"
        }
      ],
      "name": "balanceOf",
      "outputs": [
        {
          "internalType": "uint256",
          "name": "",
          "type": "uint256"
        }
      ],
      "stateMutability": "view",
      "type": "function",
      "constant": true
    },
    {
      "inputs": [],
      "name": "baseURI",
      "outputs": [
        {
          "internalType": "string",
          "name": "",
          "type": "string"
        }
      ],
      "stateMutability": "view",
      "type": "function",
      "constant": true
    },
    {
      "inputs": [
        {
          "internalType": "uint256",
          "name": "tokenId",
          "type": "uint256"
        }
      ],
      "name": "getApproved",
      "outputs": [
        {
          "internalType": "address",
          "name": "",
          "type": "address"
        }
      ],
      "stateMutability": "view",
      "type": "function",
      "constant": true
    },
    {
      "inputs": [
        {
          "internalType": "address",
          "name": "owner",
          "type": "address"
        },
        {
          "internalType": "address",
          "name": "operator",
          "type": "address"
        }
      ],
      "name": "isApprovedForAll",
      "outputs": [
        {
          "internalType": "bool",
          "name": "",
          "type": "bool"
        }
      ],
      "stateMutability": "view",
      "type": "function",
      "constant": true
    },
    {
      "inputs": [],
      "name": "name",
      "outputs": [
        {
          "internalType": "string",
          "name": "",
          "type": "string"
        }
      ],
      "stateMutability": "view",
      "type": "function",
      "constant": true
    },
    {
      "inputs": [],
      "name": "owner",
      "outputs": [
        {
          "internalType": "address",
          "name": "",
          "type": "address"
        }
      ],
      "stateMutability": "view",
      "type": "function",
      "constant": true
    },
    {
      "inputs": [
        {
          "internalType": "uint256",
          "name": "tokenId",
          "type": "uint256"
        }
      ],
      "name": "ownerOf",
      "outputs": [
        {
          "internalType": "address",
          "name": "",
          "type": "address"
        }
      ],
      "stateMutability": "view",
      "type": "function",
      "constant": true
    },
    {
      "inputs": [],
      "name": "paused",
      "outputs": [
        {
          "internalType": "bool",
          "name": "",
          "type": "bool"
        }
      ],
      "stateMutability": "view",
      "type": "function",
      "constant": true
    },
    {
      "inputs": [],
      "name": "renounceOwnership",
      "outputs": [],
      "stateMutability": "nonpayable",
      "type": "function"
    },
    {
      "inputs": [
        {
          "internalType": "address",
          "name": "from",
          "type": "address"
        },
        {
          "internalType": "address",
          "name": "to",
          "type": "address"
        },
        {
          "internalType": "uint256",
          "name": "tokenId",
          "type": "uint256"
        }
      ],
      "name": "safeTransferFrom",
      "outputs": [],
      "stateMutability": "nonpayable",
      "type": "function"
    },
    {
      "inputs": [
        {
          "internalType": "address",
          "name": "from",
          "type": "address"
        },
        {
          "internalType": "address",
          "name": "to",
          "type": "address"
        },
        {
          "internalType": "uint256",
          "name": "tokenId",
          "type": "uint256"
        },
        {
          "internalType": "bytes",
          "name": "_data",
          "type": "bytes"
        }
      ],
      "name": "safeTransferFrom",
      "outputs": [],
      "stateMutability": "nonpayable",
      "type": "function"
    },
    {
      "inputs": [
        {
          "internalType": "address",
          "name": "operator",
          "type": "address"
        },
        {
          "internalType": "bool",
          "name": "approved",
          "type": "bool"
        }
      ],
      "name": "setApprovalForAll",
      "outputs": [],
      "stateMutability": "nonpayable",
      "type": "function"
    },
    {
      "inputs": [
        {
          "internalType": "bytes4",
          "name": "interfaceId",
          "type": "bytes4"
        }
      ],
      "name": "supportsInterface",
      "outputs": [
        {
          "internalType": "bool",
          "name": "",
          "type": "bool"
        }
      ],
      "stateMutability": "view",
      "type": "function",
      "constant": true
    },
    {
      "inputs": [],
      "name": "symbol",
      "outputs": [
        {
          "internalType": "string",
          "name": "",
          "type": "string"
        }
      ],
      "stateMutability": "view",
      "type": "function",
      "constant": true
    },
    {
      "inputs": [
        {
          "internalType": "uint256",
          "name": "tokenId",
          "type": "uint256"
        }
      ],
      "name": "tokenURI",
      "outputs": [
        {
          "internalType": "string",
          "name": "",
          "type": "string"
        }
      ],
      "stateMutability": "view",
      "type": "function",
      "constant": true
    },
    {
      "inputs": [],
      "name": "totalSupply",
      "outputs": [
        {
          "internalType": "uint256",
          "name": "",
          "type": "uint256"
        }
      ],
      "stateMutability": "view",
      "type": "function",
      "constant": true
    },
    {
      "inputs": [
        {
          "internalType": "address",
          "name": "from",
          "type": "address"
        },
        {
          "internalType": "address",
          "name": "to",
          "type": "address"
        },
        {
          "internalType": "uint256",
          "name": "tokenId",
          "type": "uint256"
        }
      ],
      "name": "transferFrom",
      "outputs": [],
      "stateMutability": "nonpayable",
      "type": "function"
    },
    {
      "inputs": [
        {
          "internalType": "address",
          "name": "newOwner",
          "type": "address"
        }
      ],
      "name": "transferOwnership",
      "outputs": [],
      "stateMutability": "nonpayable",
      "type": "function"
    },
    {
      "inputs": [
        {
          "internalType": "uint256",
          "name": "quantity",
          "type": "uint256"
        }
      ],
      "name": "mint",
      "outputs": [],
      "stateMutability": "payable",
      "type": "function",
      "payable": true
    },
    {
      "inputs": [],
      "name": "withdraw",
      "outputs": [],
      "stateMutability": "payable",
      "type": "function",
      "payable": true
    },
    {
      "inputs": [
        {
          "internalType": "bool",
          "name": "_state",
          "type": "bool"
        }
      ],
      "name": "pause",
      "outputs": [],
      "stateMutability": "nonpayable",
      "type": "function"
    }
  ],
  "bytecode": "0x600560095560ff600a55600b805460ff1916905560e060405260366080818152906200198160a03980516200003d91600c916020909101906200011c565b503480156200004b57600080fd5b50604080518082018252600d81526c5377617920426f74204672656560981b60208083019182528351808501909452600384526229a12360e91b9084015281519192916200009c916002916200011c565b508051620000b29060039060208401906200011c565b50506000805550620000c433620000ca565b620001ff565b600880546001600160a01b038381166001600160a01b0319831681179093556040519116919082907f8be0079c531659141344cd1fd0a4f28419497f9722a3daafe3b4186f6b6457e090600090a35050565b8280546200012a90620001c2565b90600052602060002090601f0160209004810192826200014e576000855562000199565b82601f106200016957805160ff191683800117855562000199565b8280016001018555821562000199579182015b82811115620001995782518255916020019190600101906200017c565b50620001a7929150620001ab565b5090565b5b80821115620001a75760008155600101620001ac565b600181811c90821680620001d757607f821691505b60208210811415620001f957634e487b7160e01b600052602260045260246000fd5b50919050565b611772806200020f6000396000f3fe6080604052600436106101355760003560e01c80636c0360eb116100ab578063a0712d681161006f578063a0712d681461032d578063a22cb46514610340578063b88d4fde14610360578063c87b56dd14610380578063e985e9c5146103a0578063f2fde38b146103e957600080fd5b80636c0360eb146102b057806370a08231146102c5578063715018a6146102e55780638da5cb5b146102fa57806395d89b411461031857600080fd5b806318160ddd116100fd57806318160ddd1461020b57806323b872dd1461022e5780633ccfd60b1461024e57806342842e0e146102565780635c975abb146102765780636352211e1461029057600080fd5b806301ffc9a71461013a57806302329a291461016f57806306fdde0314610191578063081812fc146101b3578063095ea7b3146101eb575b600080fd5b34801561014657600080fd5b5061015a6101553660046114db565b610409565b60405190151581526020015b60405180910390f35b34801561017b57600080fd5b5061018f61018a3660046114c1565b61045b565b005b34801561019d57600080fd5b506101a66104a1565b60405161016691906115c3565b3480156101bf57600080fd5b506101d36101ce366004611513565b610533565b6040516001600160a01b039091168152602001610166565b3480156101f757600080fd5b5061018f610206366004611498565b610577565b34801561021757600080fd5b50600154600054035b604051908152602001610166565b34801561023a57600080fd5b5061018f61024936600461135f565b610605565b61018f610610565b34801561026257600080fd5b5061018f61027136600461135f565b610676565b34801561028257600080fd5b50600b5461015a9060ff1681565b34801561029c57600080fd5b506101d36102ab366004611513565b610691565b3480156102bc57600080fd5b506101a66106a3565b3480156102d157600080fd5b506102206102e0366004611313565b610731565b3480156102f157600080fd5b5061018f610780565b34801561030657600080fd5b506008546001600160a01b03166101d3565b34801561032457600080fd5b506101a66107b6565b61018f61033b366004611513565b6107c5565b34801561034c57600080fd5b5061018f61035b36600461146f565b6108eb565b34801561036c57600080fd5b5061018f61037b36600461139a565b610981565b34801561038c57600080fd5b506101a661039b366004611513565b6109d2565b3480156103ac57600080fd5b5061015a6103bb36600461132d565b6001600160a01b03918216600090815260076020908152604080832093909416825291909152205460ff1690565b3480156103f557600080fd5b5061018f610404366004611313565b610a57565b60006001600160e01b031982166380ac58cd60e01b148061043a57506001600160e01b03198216635b5e139f60e01b145b8061045557506301ffc9a760e01b6001600160e01b03198316145b92915050565b6008546001600160a01b0316331461048e5760405162461bcd60e51b8152600401610485906115d6565b60405180910390fd5b600b805460ff1916911515919091179055565b6060600280546104b09061167a565b80601f01602080910402602001604051908101604052809291908181526020018280546104dc9061167a565b80156105295780601f106104fe57610100808354040283529160200191610529565b820191906000526020600020905b81548152906001019060200180831161050c57829003601f168201915b5050505050905090565b600061053e82610aef565b61055b576040516333d1c03960e21b815260040160405180910390fd5b506000908152600660205260409020546001600160a01b031690565b600061058282610691565b9050806001600160a01b0316836001600160a01b031614156105b75760405163250fdee360e21b815260040160405180910390fd5b336001600160a01b038216148015906105d757506105d581336103bb565b155b156105f5576040516367d9dca160e11b815260040160405180910390fd5b610600838383610b1a565b505050565b610600838383610b76565b6008546001600160a01b0316331461063a5760405162461bcd60e51b8152600401610485906115d6565b6008546040516001600160a01b03909116904780156108fc02916000818181858888f19350505050158015610673573d6000803e3d6000fd5b50565b61060083838360405180602001604052806000815250610981565b600061069c82610d66565b5192915050565b600c80546106b09061167a565b80601f01602080910402602001604051908101604052809291908181526020018280546106dc9061167a565b80156107295780601f106106fe57610100808354040283529160200191610729565b820191906000526020600020905b81548152906001019060200180831161070c57829003601f168201915b505050505081565b60006001600160a01b03821661075a576040516323d3ad8160e21b815260040160405180910390fd5b506001600160a01b031660009081526005602052604090205467ffffffffffffffff1690565b6008546001600160a01b031633146107aa5760405162461bcd60e51b8152600401610485906115d6565b6107b46000610e82565b565b6060600380546104b09061167a565b600b5460ff161561080f5760405162461bcd60e51b8152602060048201526014602482015273436f6e7472616374206973206f6e20706175736560601b6044820152606401610485565b60095433600090815260056020526040902054600160401b900467ffffffffffffffff1661083d908361160b565b11156108805760405162461bcd60e51b8152602060048201526012602482015271115e18d959591959081d1a19481b1a5b5a5d60721b6044820152606401610485565b600a54816108916001546000540390565b61089b919061160b565b11156108e15760405162461bcd60e51b8152602060048201526015602482015274139bdd08195b9bdd59da081d1bdad95b881b19599d605a1b6044820152606401610485565b6106733382610ed4565b6001600160a01b0382163314156109155760405163b06307db60e01b815260040160405180910390fd5b3360008181526007602090815260408083206001600160a01b03871680855290835292819020805460ff191686151590811790915590519081529192917f17307eab39ab6107e8899845ad3d59bd9653f200f220920489ca2b5937696c31910160405180910390a35050565b61098c848484610b76565b6001600160a01b0383163b151580156109ae57506109ac84848484610ef2565b155b156109cc576040516368d2bf6b60e11b815260040160405180910390fd5b50505050565b60606109dd82610aef565b6109fa57604051630a14c4b560e41b815260040160405180910390fd5b6000610a04610fea565b9050805160001415610a255760405180602001604052806000815250610a50565b80610a2f84610ff9565b604051602001610a40929190611557565b6040516020818303038152906040525b9392505050565b6008546001600160a01b03163314610a815760405162461bcd60e51b8152600401610485906115d6565b6001600160a01b038116610ae65760405162461bcd60e51b815260206004820152602660248201527f4f776e61626c653a206e6577206f776e657220697320746865207a65726f206160448201526564647265737360d01b6064820152608401610485565b61067381610e82565b6000805482108015610455575050600090815260046020526040902054600160e01b900460ff161590565b60008281526006602052604080822080546001600160a01b0319166001600160a01b0387811691821790925591518593918516917f8c5be1e5ebec7d5bd14f71427d1e84f3dd0314c0f7b2291e5b200ac8c7c3b92591a4505050565b6000610b8182610d66565b9050836001600160a01b031681600001516001600160a01b031614610bb85760405162a1148160e81b815260040160405180910390fd5b6000336001600160a01b0386161480610bd65750610bd685336103bb565b80610bf1575033610be684610533565b6001600160a01b0316145b905080610c1157604051632ce44b5f60e11b815260040160405180910390fd5b6001600160a01b038416610c3857604051633a954ecd60e21b815260040160405180910390fd5b610c4460008487610b1a565b6001600160a01b038581166000908152600560209081526040808320805467ffffffffffffffff1980821667ffffffffffffffff92831660001901831617909255898616808652838620805493841693831660019081018416949094179055898652600490945282852080546001600160e01b031916909417600160a01b42909216919091021783558701808452922080549193909116610d1a576000548214610d1a578054602086015167ffffffffffffffff16600160a01b026001600160e01b03199091166001600160a01b038a16171781555b50505082846001600160a01b0316866001600160a01b03167fddf252ad1be2c89b69c2b068fc378daa952ba7f163c4a11628f55a4df523b3ef60405160405180910390a45b5050505050565b604080516060810182526000808252602082018190529181019190915281600054811015610e6957600081815260046020908152604091829020825160608101845290546001600160a01b0381168252600160a01b810467ffffffffffffffff1692820192909252600160e01b90910460ff16151591810182905290610e675780516001600160a01b031615610dfd579392505050565b5060001901600081815260046020908152604091829020825160608101845290546001600160a01b038116808352600160a01b820467ffffffffffffffff1693830193909352600160e01b900460ff1615159281019290925215610e62579392505050565b610dfd565b505b604051636f96cda160e11b815260040160405180910390fd5b600880546001600160a01b038381166001600160a01b0319831681179093556040519116919082907f8be0079c531659141344cd1fd0a4f28419497f9722a3daafe3b4186f6b6457e090600090a35050565b610eee828260405180602001604052806000815250611113565b5050565b604051630a85bd0160e11b81526000906001600160a01b0385169063150b7a0290610f27903390899088908890600401611586565b602060405180830381600087803b158015610f4157600080fd5b505af1925050508015610f71575060408051601f3d908101601f19168201909252610f6e918101906114f7565b60015b610fcc573d808015610f9f576040519150601f19603f3d011682016040523d82523d6000602084013e610fa4565b606091505b508051610fc4576040516368d2bf6b60e11b815260040160405180910390fd5b805181602001fd5b6001600160e01b031916630a85bd0160e11b1490505b949350505050565b6060600c80546104b09061167a565b60608161101d5750506040805180820190915260018152600360fc1b602082015290565b8160005b81156110475780611031816116b5565b91506110409050600a83611623565b9150611021565b60008167ffffffffffffffff81111561107057634e487b7160e01b600052604160045260246000fd5b6040519080825280601f01601f19166020018201604052801561109a576020820181803683370190505b5090505b8415610fe2576110af600183611637565b91506110bc600a866116d0565b6110c790603061160b565b60f81b8183815181106110ea57634e487b7160e01b600052603260045260246000fd5b60200101906001600160f81b031916908160001a90535061110c600a86611623565b945061109e565b61060083838360016000546001600160a01b03851661114457604051622e076360e81b815260040160405180910390fd5b836111625760405163b562e8dd60e01b815260040160405180910390fd5b6001600160a01b038516600081815260056020908152604080832080546fffffffffffffffffffffffffffffffff19811667ffffffffffffffff8083168c018116918217600160401b67ffffffffffffffff1990941690921783900481168c01811690920217909155858452600490925290912080546001600160e01b031916909217600160a01b42909216919091021790558080850183801561120f57506001600160a01b0387163b15155b15611298575b60405182906001600160a01b038916906000907fddf252ad1be2c89b69c2b068fc378daa952ba7f163c4a11628f55a4df523b3ef908290a46112606000888480600101955088610ef2565b61127d576040516368d2bf6b60e11b815260040160405180910390fd5b8082141561121557826000541461129357600080fd5b6112de565b5b6040516001830192906001600160a01b038916906000907fddf252ad1be2c89b69c2b068fc378daa952ba7f163c4a11628f55a4df523b3ef908290a480821415611299575b50600055610d5f565b80356001600160a01b03811681146112fe57600080fd5b919050565b803580151581146112fe57600080fd5b600060208284031215611324578081fd5b610a50826112e7565b6000806040838503121561133f578081fd5b611348836112e7565b9150611356602084016112e7565b90509250929050565b600080600060608486031215611373578081fd5b61137c846112e7565b925061138a602085016112e7565b9150604084013590509250925092565b600080600080608085870312156113af578081fd5b6113b8856112e7565b93506113c6602086016112e7565b925060408501359150606085013567ffffffffffffffff808211156113e9578283fd5b818701915087601f8301126113fc578283fd5b81358181111561140e5761140e611710565b604051601f8201601f19908116603f0116810190838211818310171561143657611436611710565b816040528281528a602084870101111561144e578586fd5b82602086016020830137918201602001949094529598949750929550505050565b60008060408385031215611481578182fd5b61148a836112e7565b915061135660208401611303565b600080604083850312156114aa578182fd5b6114b3836112e7565b946020939093013593505050565b6000602082840312156114d2578081fd5b610a5082611303565b6000602082840312156114ec578081fd5b8135610a5081611726565b600060208284031215611508578081fd5b8151610a5081611726565b600060208284031215611524578081fd5b5035919050565b6000815180845261154381602086016020860161164e565b601f01601f19169290920160200192915050565b6000835161156981846020880161164e565b83519083019061157d81836020880161164e565b01949350505050565b6001600160a01b03858116825284166020820152604081018390526080606082018190526000906115b99083018461152b565b9695505050505050565b602081526000610a50602083018461152b565b6020808252818101527f4f776e61626c653a2063616c6c6572206973206e6f7420746865206f776e6572604082015260600190565b6000821982111561161e5761161e6116e4565b500190565b600082611632576116326116fa565b500490565b600082821015611649576116496116e4565b500390565b60005b83811015611669578181015183820152602001611651565b838111156109cc5750506000910152565b600181811c9082168061168e57607f821691505b602082108114156116af57634e487b7160e01b600052602260045260246000fd5b50919050565b60006000198214156116c9576116c96116e4565b5060010190565b6000826116df576116df6116fa565b500690565b634e487b7160e01b600052601160045260246000fd5b634e487b7160e01b600052601260045260246000fd5b634e487b7160e01b600052604160045260246000fd5b6001600160e01b03198116811461067357600080fdfea26469706673582212209db4709bd23a8e9479b70343097b6099e6cbf2d90f7a437049954d39f2c3211264736f6c63430008040033697066733a2f2f516d576d757a704c636269643474666a6f71676d74546a514b74625a4350486278664c43556652786e583654474b2f",
  "immutableReferences": {},
  "source": "// SPDX-License-Identifier: MIT\npragma solidity ^0.8.4;\n\nimport \"erc721a/contracts/ERC721A.sol\";\nimport \"@openzeppelin/contracts/access/Ownable.sol\";\n\ncontract SwayBotFree is ERC721A, Ownable {\n  constructor() ERC721A(\"Sway Bot Free\", \"SBF\") {}\n\n  uint256 MAX_MINTS = 5;\n  uint256 MAX_SUPPLY = 255;\n  bool public paused = false;\n\n  string public baseURI = \"ipfs://QmWmuzpLcbid4tfjoqgmtTjQKtbZCPHbxfLCUfRxnX6TGK/\";\n\n  function mint(uint256 quantity) external payable {\n    require(!paused, \"Contract is on pause\");\n    require((quantity + _numberMinted(msg.sender)) <= MAX_MINTS, \"Exceeded the limit\");\n    require(totalSupply() + quantity <= MAX_SUPPLY, \"Not enough token left\");\n    _safeMint(msg.sender, quantity);\n  }\n\n  function withdraw() external payable onlyOwner {\n    payable(owner()).transfer(address(this).balance);\n  }\n\n  function _baseURI() internal view override returns (string memory) {\n    return baseURI;\n  }\n\n  function pause(bool _state) public onlyOwner {\n    paused = _state;\n  }\n}",
  "sourcePath": "/home/idee/Documents/projects/codemonkey/contracts/SwayBotFree.sol",
  "compiler": {
    "name": "solc",
    "version": "0.8.4+commit.c7e474f2.Emscripten.clang"
  },
  "schemaVersion": "3.4.6",
  "updatedAt": "2022-04-02T00:11:33.544Z",
  "networkType": "ethereum",
  "devdoc": {
    "kind": "dev",
    "methods": {
      "approve(address,uint256)": {
        "details": "See {IERC721-approve}."
      },
      "balanceOf(address)": {
        "details": "See {IERC721-balanceOf}."
      },
      "getApproved(uint256)": {
        "details": "See {IERC721-getApproved}."
      },
      "isApprovedForAll(address,address)": {
        "details": "See {IERC721-isApprovedForAll}."
      },
      "name()": {
        "details": "See {IERC721Metadata-name}."
      },
      "owner()": {
        "details": "Returns the address of the current owner."
      },
      "ownerOf(uint256)": {
        "details": "See {IERC721-ownerOf}."
      },
      "renounceOwnership()": {
        "details": "Leaves the contract without owner. It will not be possible to call `onlyOwner` functions anymore. Can only be called by the current owner. NOTE: Renouncing ownership will leave the contract without an owner, thereby removing any functionality that is only available to the owner."
      },
      "safeTransferFrom(address,address,uint256)": {
        "details": "See {IERC721-safeTransferFrom}."
      },
      "safeTransferFrom(address,address,uint256,bytes)": {
        "details": "See {IERC721-safeTransferFrom}."
      },
      "setApprovalForAll(address,bool)": {
        "details": "See {IERC721-setApprovalForAll}."
      },
      "supportsInterface(bytes4)": {
        "details": "See {IERC165-supportsInterface}."
      },
      "symbol()": {
        "details": "See {IERC721Metadata-symbol}."
      },
      "tokenURI(uint256)": {
        "details": "See {IERC721Metadata-tokenURI}."
      },
      "totalSupply()": {
        "details": "Burned tokens are calculated here, use _totalMinted() if you want to count just minted tokens."
      },
      "transferFrom(address,address,uint256)": {
        "details": "See {IERC721-transferFrom}."
      },
      "transferOwnership(address)": {
        "details": "Transfers ownership of the contract to a new account (`newOwner`). Can only be called by the current owner."
      }
    },
    "version": 1
  },
  "userdoc": {
    "kind": "user",
    "methods": {},
    "version": 1
  }
}