{
	"contractName": "WyvernAtomicizer",
	"abi": [
		{
			"constant": false,
			"inputs": [
				{
					"name": "addrs",
					"type": "address[]"
				},
				{
					"name": "values",
					"type": "uint256[]"
				},
				{
					"name": "calldataLengths",
					"type": "uint256[]"
				},
				{
					"name": "calldatas",
					"type": "bytes"
				}
			],
			"name": "atomicize",
			"outputs": [],
			"payable": false,
			"stateMutability": "nonpayable",
			"type": "function"
		}
	],
	"bytecode": "0x6104a3610026600b82828239805160001a60731461001957fe5b30600052607381538281f3fe73000000000000000000000000000000000000000030146080604052600436106100355760003560e01c806368f0bcaa1461003a575b600080fd5b81801561004657600080fd5b506101ad6004803603608081101561005d57600080fd5b81019060208101813564010000000081111561007857600080fd5b82018360208201111561008a57600080fd5b803590602001918460208302840111640100000000831117156100ac57600080fd5b9193909290916020810190356401000000008111156100ca57600080fd5b8201836020820111156100dc57600080fd5b803590602001918460208302840111640100000000831117156100fe57600080fd5b91939092909160208101903564010000000081111561011c57600080fd5b82018360208201111561012e57600080fd5b8035906020019184602083028401116401000000008311171561015057600080fd5b91939092909160208101903564010000000081111561016e57600080fd5b82018360208201111561018057600080fd5b803590602001918460018302840111640100000000831117156101a257600080fd5b5090925090506101af565b005b86851480156101bd57508683145b6101f85760405162461bcd60e51b815260040180806020018281038252603e815260200180610430603e913960400191505060405180910390fd5b6000805b8881101561042357606086868381811061021257fe5b9050602002013567ffffffffffffffff8111801561022f57600080fd5b506040519080825280601f01601f19166020018201604052801561025a576020820181803683370190505b50905060005b87878481811061026c57fe5b905060200201358110156102d75785858581811061028657fe5b9050013560f81c60f81b82828151811061029c57fe5b60200101907effffffffffffffffffffffffffffffffffffffffffffffffffffffffffffff1916908160001a90535060019384019301610260565b5060008b8b848181106102e657fe5b9050602002013573ffffffffffffffffffffffffffffffffffffffff1673ffffffffffffffffffffffffffffffffffffffff168a8a8581811061032557fe5b90506020020135836040518082805190602001908083835b6020831061035c5780518252601f19909201916020918201910161033d565b6001836020036101000a03801982511681845116808217855250505050505090500191505060006040518083038185875af1925050503d80600081146103be576040519150601f19603f3d011682016040523d82523d6000602084013e6103c3565b606091505b5050905080610419576040805162461bcd60e51b815260206004820152601960248201527f41746f6d6963697a65722073756263616c6c206661696c656400000000000000604482015290519081900360640190fd5b50506001016101fc565b5050505050505050505056fe4164647265737365732c2063616c6c64617461206c656e677468732c20616e642076616c756573206d757374206d6174636820696e207175616e74697479a264697066735822122033a437689c0c10e589e78525902b84732fcae7ae6be5f38e2f653038ec113b3264736f6c63430007050033",
	"immutableReferences": {},
	"source": "/*\n\n  << Wyvern Atomicizer >>\n\n  Execute multiple transactions, in order, atomically (if any fails, all revert).\n\n*/\n\npragma solidity 0.7.5;\n\n/**\n * @title WyvernAtomicizer\n * @author Wyvern Protocol Developers\n */\nlibrary WyvernAtomicizer {\n\n    function atomicize (address[] calldata addrs, uint[] calldata values, uint[] calldata calldataLengths, bytes calldata calldatas)\n        external\n    {\n        require(addrs.length == values.length && addrs.length == calldataLengths.length, \"Addresses, calldata lengths, and values must match in quantity\");\n\n        uint j = 0;\n        for (uint i = 0; i < addrs.length; i++) {\n            bytes memory cd = new bytes(calldataLengths[i]);\n            for (uint k = 0; k < calldataLengths[i]; k++) {\n                cd[k] = calldatas[j];\n                j++;\n            }\n            (bool success,) = addrs[i].call{value: values[i]}(cd);\n            require(success, \"Atomicizer subcall failed\");\n        }\n    }\n\n}\n",
	"sourcePath": "/home/idee/Documents/projects/wyvern-v3/contracts/WyvernAtomicizer.sol",
	"compiler": {
		"name": "solc",
		"version": "0.7.5+commit.eb77ed08.Emscripten.clang"
	},
	"schemaVersion": "3.4.5",
	"updatedAt": "2022-03-12T12:03:42.920Z",
	"networkType": "ethereum",
	"devdoc": {
		"author": "Wyvern Protocol Developers",
		"kind": "dev",
		"methods": {},
		"title": "WyvernAtomicizer",
		"version": 1
	},
	"userdoc": {
		"kind": "user",
		"methods": {},
		"version": 1
	}
}